:100000000C942A000C94D3000C94D3000C94D300CD
:100010000C94D3000C94D3000C94D3000C94D30014
:100020000C94D3000C94D3000C94D3000C94D30004
:100030000C94D3000C94D3000C94D3000C94D300F4
:100040000C94D3000C94D3000C94D3000C94D300E4
:100050000C94D30011241FBECFE5D8E0DEBFCDBF86
:0C0060000E9436000C943400F894FFCF8E
:10006C00B898A29ABC98A79A8A988B9A80E090E04C
:10007C000E947600892B29F082E090E00E94B20069
:10008C0004C082E090E00E946A0084E090E00E944C
:10009C008E00892B29F087E090E00E94BD0004C0FF
:1000AC0087E090E00E94820082E090E00E94A6002F
:1000BC00892B29F083E090E00E94C800D7CF83E021
:0800CC0090E00E949A00D2CFDF
:1000D40095B321E030E002C0220F331F8A95E2F786
:0800E4002095292325BB089596
:1000EC0026B330E0A90102C0559547958A95E2F7F1
:0800FC00CA01817099270895E3
:1001040095B321E030E002C0220F331F8A95E2F755
:080114002095292325BB089565
:10011C0026B330E0A90102C0559547958A95E2F7C0
:08012C00CA01817099270895B2
:1001340092B321E030E002C0220F331F8A95E2F728
:080144002095292322BB089538
:10014C0020B330E0A90102C0559547958A95E2F796
:08015C00CA0181709927089582
:1001640095B321E030E002C0220F331F8A95E2F7F5
:06017400292B25BB0895B4
:10017A0095B321E030E002C0220F331F8A95E2F7DF
:06018A00292B25BB08959E
:1001900092B321E030E002C0220F331F8A95E2F7CC
:0601A000292B22BB08958B
:0401A6000C940000B5
:00000001FF
